{
  "_format": "hh-sol-artifact-1",
  "contractName": "NFTMarket",
  "sourceName": "contracts/MyNFT.sol",
  "abi": [
    {
      "inputs": [],
      "stateMutability": "nonpayable",
      "type": "constructor"
    },
    {
      "anonymous": false,
      "inputs": [
        {
          "indexed": true,
          "internalType": "uint256",
          "name": "itemId",
          "type": "uint256"
        },
        {
          "indexed": true,
          "internalType": "address",
          "name": "nftContract",
          "type": "address"
        },
        {
          "indexed": true,
          "internalType": "uint256",
          "name": "tokenId",
          "type": "uint256"
        },
        {
          "indexed": false,
          "internalType": "address",
          "name": "seller",
          "type": "address"
        },
        {
          "indexed": false,
          "internalType": "address",
          "name": "owner",
          "type": "address"
        },
        {
          "indexed": false,
          "internalType": "uint256",
          "name": "price",
          "type": "uint256"
        }
      ],
      "name": "MarketItemCreated",
      "type": "event"
    },
    {
      "inputs": [
        {
          "internalType": "address",
          "name": "nftContract",
          "type": "address"
        },
        {
          "internalType": "uint256",
          "name": "tokenId",
          "type": "uint256"
        },
        {
          "internalType": "uint256",
          "name": "price",
          "type": "uint256"
        }
      ],
      "name": "createMarketItem",
      "outputs": [],
      "stateMutability": "payable",
      "type": "function"
    },
    {
      "inputs": [
        {
          "internalType": "address",
          "name": "nftContract",
          "type": "address"
        },
        {
          "internalType": "uint256",
          "name": "itemId",
          "type": "uint256"
        }
      ],
      "name": "createMarketSale",
      "outputs": [],
      "stateMutability": "payable",
      "type": "function"
    },
    {
      "inputs": [],
      "name": "fetchMarketItems",
      "outputs": [
        {
          "components": [
            {
              "internalType": "uint256",
              "name": "itemId",
              "type": "uint256"
            },
            {
              "internalType": "address",
              "name": "nftContract",
              "type": "address"
            },
            {
              "internalType": "uint256",
              "name": "tokenId",
              "type": "uint256"
            },
            {
              "internalType": "address payable",
              "name": "seller",
              "type": "address"
            },
            {
              "internalType": "address payable",
              "name": "owner",
              "type": "address"
            },
            {
              "internalType": "uint256",
              "name": "price",
              "type": "uint256"
            }
          ],
          "internalType": "struct NFTMarket.MarketItem[]",
          "name": "",
          "type": "tuple[]"
        }
      ],
      "stateMutability": "view",
      "type": "function"
    },
    {
      "inputs": [],
      "name": "fetchMyNFTs",
      "outputs": [
        {
          "components": [
            {
              "internalType": "uint256",
              "name": "itemId",
              "type": "uint256"
            },
            {
              "internalType": "address",
              "name": "nftContract",
              "type": "address"
            },
            {
              "internalType": "uint256",
              "name": "tokenId",
              "type": "uint256"
            },
            {
              "internalType": "address payable",
              "name": "seller",
              "type": "address"
            },
            {
              "internalType": "address payable",
              "name": "owner",
              "type": "address"
            },
            {
              "internalType": "uint256",
              "name": "price",
              "type": "uint256"
            }
          ],
          "internalType": "struct NFTMarket.MarketItem[]",
          "name": "",
          "type": "tuple[]"
        }
      ],
      "stateMutability": "view",
      "type": "function"
    }
  ],
  "bytecode": "0x6080604052678ac7230489e8000060045534801561001c57600080fd5b50600160008190555033600360006101000a81548173ffffffffffffffffffffffffffffffffffffffff021916908373ffffffffffffffffffffffffffffffffffffffff1602179055506113e1806100756000396000f3fe60806040526004361061003f5760003560e01c80630f08efe014610044578063202e37401461006f57806358eb2df51461009a578063c23b139e146100b6575b600080fd5b34801561005057600080fd5b506100596100d2565b6040516100669190611141565b60405180910390f35b34801561007b57600080fd5b506100846103da565b6040516100919190611141565b60405180910390f35b6100b460048036038101906100af9190610e33565b61076f565b005b6100d060048036038101906100cb9190610df7565b610aa7565b005b606060006100e06001610d31565b905060006100ee6002610d31565b826100f99190611283565b90506000808267ffffffffffffffff81111561013e577f4e487b7100000000000000000000000000000000000000000000000000000000600052604160045260246000fd5b60405190808252806020026020018201604052801561017757816020015b610164610d55565b81526020019060019003908161015c5790505b50905060005b848110156103cf57600073ffffffffffffffffffffffffffffffffffffffff16600560006001846101ae919061122d565b815260200190815260200160002060040160009054906101000a900473ffffffffffffffffffffffffffffffffffffffff1673ffffffffffffffffffffffffffffffffffffffff1614156103bc5760006005600060018461020f919061122d565b81526020019081526020016000206000015490506000600560008381526020019081526020016000209050806040518060c0016040529081600082015481526020016001820160009054906101000a900473ffffffffffffffffffffffffffffffffffffffff1673ffffffffffffffffffffffffffffffffffffffff1673ffffffffffffffffffffffffffffffffffffffff168152602001600282015481526020016003820160009054906101000a900473ffffffffffffffffffffffffffffffffffffffff1673ffffffffffffffffffffffffffffffffffffffff1673ffffffffffffffffffffffffffffffffffffffff1681526020016004820160009054906101000a900473ffffffffffffffffffffffffffffffffffffffff1673ffffffffffffffffffffffffffffffffffffffff1673ffffffffffffffffffffffffffffffffffffffff16815260200160058201548152505084868151811061039f577f4e487b7100000000000000000000000000000000000000000000000000000000600052603260045260246000fd5b60200260200101819052506001856103b7919061122d565b945050505b80806103c790611305565b91505061017d565b508094505050505090565b606060006103e86001610d31565b905060008060005b83811015610491573373ffffffffffffffffffffffffffffffffffffffff1660056000600184610420919061122d565b815260200190815260200160002060040160009054906101000a900473ffffffffffffffffffffffffffffffffffffffff1673ffffffffffffffffffffffffffffffffffffffff16141561047e5760018361047b919061122d565b92505b808061048990611305565b9150506103f0565b5060008267ffffffffffffffff8111156104d4577f4e487b7100000000000000000000000000000000000000000000000000000000600052604160045260246000fd5b60405190808252806020026020018201604052801561050d57816020015b6104fa610d55565b8152602001906001900390816104f25790505b50905060005b84811015610764573373ffffffffffffffffffffffffffffffffffffffff1660056000600184610543919061122d565b815260200190815260200160002060040160009054906101000a900473ffffffffffffffffffffffffffffffffffffffff1673ffffffffffffffffffffffffffffffffffffffff161415610751576000600560006001846105a4919061122d565b81526020019081526020016000206000015490506000600560008381526020019081526020016000209050806040518060c0016040529081600082015481526020016001820160009054906101000a900473ffffffffffffffffffffffffffffffffffffffff1673ffffffffffffffffffffffffffffffffffffffff1673ffffffffffffffffffffffffffffffffffffffff168152602001600282015481526020016003820160009054906101000a900473ffffffffffffffffffffffffffffffffffffffff1673ffffffffffffffffffffffffffffffffffffffff1673ffffffffffffffffffffffffffffffffffffffff1681526020016004820160009054906101000a900473ffffffffffffffffffffffffffffffffffffffff1673ffffffffffffffffffffffffffffffffffffffff1673ffffffffffffffffffffffffffffffffffffffff168152602001600582015481525050848681518110610734577f4e487b7100000000000000000000000000000000000000000000000000000000600052603260045260246000fd5b602002602001018190525060018561074c919061122d565b945050505b808061075c90611305565b915050610513565b508094505050505090565b600260005414156107b5576040517f08c379a00000000000000000000000000000000000000000000000000000000081526004016107ac906111a3565b60405180910390fd5b600260008190555060008111610800576040517f08c379a00000000000000000000000000000000000000000000000000000000081526004016107f7906111c3565b60405180910390fd5b6004543414610844576040517f08c379a000000000000000000000000000000000000000000000000000000000815260040161083b90611183565b60405180910390fd5b61084e6001610d3f565b600061085a6001610d31565b90506040518060c001604052808281526020018573ffffffffffffffffffffffffffffffffffffffff1681526020018481526020013373ffffffffffffffffffffffffffffffffffffffff168152602001600073ffffffffffffffffffffffffffffffffffffffff16815260200183815250600560008381526020019081526020016000206000820151816000015560208201518160010160006101000a81548173ffffffffffffffffffffffffffffffffffffffff021916908373ffffffffffffffffffffffffffffffffffffffff1602179055506040820151816002015560608201518160030160006101000a81548173ffffffffffffffffffffffffffffffffffffffff021916908373ffffffffffffffffffffffffffffffffffffffff16021790555060808201518160040160006101000a81548173ffffffffffffffffffffffffffffffffffffffff021916908373ffffffffffffffffffffffffffffffffffffffff16021790555060a082015181600501559050508373ffffffffffffffffffffffffffffffffffffffff166323b872dd3330866040518463ffffffff1660e01b8152600401610a129392919061110a565b600060405180830381600087803b158015610a2c57600080fd5b505af1158015610a40573d6000803e3d6000fd5b50505050828473ffffffffffffffffffffffffffffffffffffffff16827f2ad024d53a0dc50c130967f8d4941927ee087ea31394cebb2b9599d3706c9c0033600087604051610a919392919061110a565b60405180910390a4506001600081905550505050565b60026000541415610aed576040517f08c379a0000000000000000000000000000000000000000000000000000000008152600401610ae4906111a3565b60405180910390fd5b6002600081905550600060056000838152602001908152602001600020600501549050600060056000848152602001908152602001600020600201549050813414610b6d576040517f08c379a0000000000000000000000000000000000000000000000000000000008152600401610b6490611163565b60405180910390fd5b6005600084815260200190815260200160002060030160009054906101000a900473ffffffffffffffffffffffffffffffffffffffff1673ffffffffffffffffffffffffffffffffffffffff166108fc349081150290604051600060405180830381858888f19350505050158015610be9573d6000803e3d6000fd5b508373ffffffffffffffffffffffffffffffffffffffff166323b872dd3033846040518463ffffffff1660e01b8152600401610c279392919061110a565b600060405180830381600087803b158015610c4157600080fd5b505af1158015610c55573d6000803e3d6000fd5b50505050336005600085815260200190815260200160002060040160006101000a81548173ffffffffffffffffffffffffffffffffffffffff021916908373ffffffffffffffffffffffffffffffffffffffff160217905550610cb86002610d3f565b600360009054906101000a900473ffffffffffffffffffffffffffffffffffffffff1673ffffffffffffffffffffffffffffffffffffffff166108fc6004549081150290604051600060405180830381858888f19350505050158015610d22573d6000803e3d6000fd5b50505060016000819055505050565b600081600001549050919050565b6001816000016000828254019250508190555050565b6040518060c0016040528060008152602001600073ffffffffffffffffffffffffffffffffffffffff16815260200160008152602001600073ffffffffffffffffffffffffffffffffffffffff168152602001600073ffffffffffffffffffffffffffffffffffffffff168152602001600081525090565b600081359050610ddc8161137d565b92915050565b600081359050610df181611394565b92915050565b60008060408385031215610e0a57600080fd5b6000610e1885828601610dcd565b9250506020610e2985828601610de2565b9150509250929050565b600080600060608486031215610e4857600080fd5b6000610e5686828701610dcd565b9350506020610e6786828701610de2565b9250506040610e7886828701610de2565b9150509250925092565b6000610e8e8383611071565b60c08301905092915050565b610ea3816112c9565b82525050565b610eb2816112b7565b82525050565b610ec1816112b7565b82525050565b6000610ed2826111f3565b610edc818561120b565b9350610ee7836111e3565b8060005b83811015610f18578151610eff8882610e82565b9750610f0a836111fe565b925050600181019050610eeb565b5085935050505092915050565b6000610f3260408361121c565b91507f506c65617365207375626d6974207468652061736b696e67207072696365206960008301527f6e206f7264657220746f20636f6d706c657465207468652070757263686173656020830152604082019050919050565b6000610f9860248361121c565b91507f5072696365206d75737420626520657175616c20746f206c697374696e67207060008301527f72696365000000000000000000000000000000000000000000000000000000006020830152604082019050919050565b6000610ffe601f8361121c565b91507f5265656e7472616e637947756172643a207265656e7472616e742063616c6c006000830152602082019050919050565b600061103e601c8361121c565b91507f5072696365206d757374206265206174206c65617374203120776569000000006000830152602082019050919050565b60c08201600082015161108760008501826110ec565b50602082015161109a6020850182610ea9565b5060408201516110ad60408501826110ec565b5060608201516110c06060850182610e9a565b5060808201516110d36080850182610e9a565b5060a08201516110e660a08501826110ec565b50505050565b6110f5816112fb565b82525050565b611104816112fb565b82525050565b600060608201905061111f6000830186610eb8565b61112c6020830185610eb8565b61113960408301846110fb565b949350505050565b6000602082019050818103600083015261115b8184610ec7565b905092915050565b6000602082019050818103600083015261117c81610f25565b9050919050565b6000602082019050818103600083015261119c81610f8b565b9050919050565b600060208201905081810360008301526111bc81610ff1565b9050919050565b600060208201905081810360008301526111dc81611031565b9050919050565b6000819050602082019050919050565b600081519050919050565b6000602082019050919050565b600082825260208201905092915050565b600082825260208201905092915050565b6000611238826112fb565b9150611243836112fb565b9250827fffffffffffffffffffffffffffffffffffffffffffffffffffffffffffffffff038211156112785761127761134e565b5b828201905092915050565b600061128e826112fb565b9150611299836112fb565b9250828210156112ac576112ab61134e565b5b828203905092915050565b60006112c2826112db565b9050919050565b60006112d4826112db565b9050919050565b600073ffffffffffffffffffffffffffffffffffffffff82169050919050565b6000819050919050565b6000611310826112fb565b91507fffffffffffffffffffffffffffffffffffffffffffffffffffffffffffffffff8214156113435761134261134e565b5b600182019050919050565b7f4e487b7100000000000000000000000000000000000000000000000000000000600052601160045260246000fd5b611386816112b7565b811461139157600080fd5b50565b61139d816112fb565b81146113a857600080fd5b5056fea2646970667358221220ca72a2de6362ba5b39f678ade1afc80f809cd62051288613dea40188e99261e364736f6c63430008000033",
  "linkReferences": {},
  "deployedLinkReferences": {}
}